{
  "contractName": "Swap",
  "abi": [
    {
      "inputs": [
        {
          "internalType": "contract Token",
          "name": "_token",
          "type": "address"
        }
      ],
      "payable": false,
      "stateMutability": "nonpayable",
      "type": "constructor"
    },
    {
      "anonymous": false,
      "inputs": [
        {
          "indexed": false,
          "internalType": "address",
          "name": "account",
          "type": "address"
        },
        {
          "indexed": false,
          "internalType": "address",
          "name": "token",
          "type": "address"
        },
        {
          "indexed": false,
          "internalType": "uint256",
          "name": "amount",
          "type": "uint256"
        },
        {
          "indexed": false,
          "internalType": "uint256",
          "name": "rate",
          "type": "uint256"
        }
      ],
      "name": "tokensPurchased",
      "type": "event"
    },
    {
      "anonymous": false,
      "inputs": [
        {
          "indexed": false,
          "internalType": "address",
          "name": "account",
          "type": "address"
        },
        {
          "indexed": false,
          "internalType": "address",
          "name": "token",
          "type": "address"
        },
        {
          "indexed": false,
          "internalType": "uint256",
          "name": "amount",
          "type": "uint256"
        },
        {
          "indexed": false,
          "internalType": "uint256",
          "name": "rate",
          "type": "uint256"
        }
      ],
      "name": "tokensSold",
      "type": "event"
    },
    {
      "constant": true,
      "inputs": [],
      "name": "flagg",
      "outputs": [
        {
          "internalType": "bool",
          "name": "",
          "type": "bool"
        }
      ],
      "payable": false,
      "stateMutability": "view",
      "type": "function"
    },
    {
      "constant": true,
      "inputs": [],
      "name": "name",
      "outputs": [
        {
          "internalType": "string",
          "name": "",
          "type": "string"
        }
      ],
      "payable": false,
      "stateMutability": "view",
      "type": "function"
    },
    {
      "constant": true,
      "inputs": [],
      "name": "rate",
      "outputs": [
        {
          "internalType": "uint256",
          "name": "",
          "type": "uint256"
        }
      ],
      "payable": false,
      "stateMutability": "view",
      "type": "function"
    },
    {
      "constant": true,
      "inputs": [],
      "name": "token",
      "outputs": [
        {
          "internalType": "contract Token",
          "name": "",
          "type": "address"
        }
      ],
      "payable": false,
      "stateMutability": "view",
      "type": "function"
    },
    {
      "constant": false,
      "inputs": [],
      "name": "buyTokens",
      "outputs": [],
      "payable": true,
      "stateMutability": "payable",
      "type": "function"
    },
    {
      "constant": false,
      "inputs": [
        {
          "internalType": "uint256",
          "name": "_amount",
          "type": "uint256"
        }
      ],
      "name": "sellTokens",
      "outputs": [],
      "payable": false,
      "stateMutability": "nonpayable",
      "type": "function"
    }
  ],
  "bytecode": "0x60806040526040518060400160405280601681526020017f446563656e7472616c697a65642045786368616e6765000000000000000000008152506000908051906020019061004f9291906100dc565b50606460025534801561006157600080fd5b50604051610abc380380610abc8339818101604052602081101561008457600080fd5b810190808051906020019092919050505080600160006101000a81548173ffffffffffffffffffffffffffffffffffffffff021916908373ffffffffffffffffffffffffffffffffffffffff16021790555050610181565b828054600181600116156101000203166002900490600052602060002090601f016020900481019282601f1061011d57805160ff191683800117855561014b565b8280016001018555821561014b579182015b8281111561014a57825182559160200191906001019061012f565b5b509050610158919061015c565b5090565b61017e91905b8082111561017a576000816000905550600101610162565b5090565b90565b61092c806101906000396000f3fe6080604052600436106100555760003560e01c806306fdde031461005a5780632c4e722e146100ea5780636c11bcd314610115578063af40b07514610150578063d0febe4c1461017f578063fc0c546a14610189575b600080fd5b34801561006657600080fd5b5061006f6101e0565b6040518080602001828103825283818151815260200191508051906020019080838360005b838110156100af578082015181840152602081019050610094565b50505050905090810190601f1680156100dc5780820380516001836020036101000a031916815260200191505b509250505060405180910390f35b3480156100f657600080fd5b506100ff61027e565b6040518082815260200191505060405180910390f35b34801561012157600080fd5b5061014e6004803603602081101561013857600080fd5b8101908080359060200190929190505050610284565b005b34801561015c57600080fd5b506101656105cd565b604051808215151515815260200191505060405180910390f35b6101876105e0565b005b34801561019557600080fd5b5061019e6108d1565b604051808273ffffffffffffffffffffffffffffffffffffffff1673ffffffffffffffffffffffffffffffffffffffff16815260200191505060405180910390f35b60008054600181600116156101000203166002900480601f0160208091040260200160405190810160405280929190818152602001828054600181600116156101000203166002900480156102765780601f1061024b57610100808354040283529160200191610276565b820191906000526020600020905b81548152906001019060200180831161025957829003601f168201915b505050505081565b60025481565b80600160009054906101000a900473ffffffffffffffffffffffffffffffffffffffff1673ffffffffffffffffffffffffffffffffffffffff166370a08231336040518263ffffffff1660e01b8152600401808273ffffffffffffffffffffffffffffffffffffffff1673ffffffffffffffffffffffffffffffffffffffff16815260200191505060206040518083038186803b15801561032457600080fd5b505afa158015610338573d6000803e3d6000fd5b505050506040513d602081101561034e57600080fd5b8101908080519060200190929190505050101561036a57600080fd5b6000600254828161037757fe5b049050803073ffffffffffffffffffffffffffffffffffffffff1631101561039e57600080fd5b600160009054906101000a900473ffffffffffffffffffffffffffffffffffffffff1673ffffffffffffffffffffffffffffffffffffffff166323b872dd3330856040518463ffffffff1660e01b8152600401808473ffffffffffffffffffffffffffffffffffffffff1673ffffffffffffffffffffffffffffffffffffffff1681526020018373ffffffffffffffffffffffffffffffffffffffff1673ffffffffffffffffffffffffffffffffffffffff1681526020018281526020019350505050602060405180830381600087803b15801561047b57600080fd5b505af115801561048f573d6000803e3d6000fd5b505050506040513d60208110156104a557600080fd5b8101908080519060200190929190505050503373ffffffffffffffffffffffffffffffffffffffff166108fc829081150290604051600060405180830381858888f193505050501580156104fd573d6000803e3d6000fd5b507fd563467e19a3a3225220b925c5b1572b54b4810c430051cdda4cd7f0c5c01cfb33600160009054906101000a900473ffffffffffffffffffffffffffffffffffffffff1684600254604051808573ffffffffffffffffffffffffffffffffffffffff1673ffffffffffffffffffffffffffffffffffffffff1681526020018473ffffffffffffffffffffffffffffffffffffffff1673ffffffffffffffffffffffffffffffffffffffff16815260200183815260200182815260200194505050505060405180910390a15050565b600360009054906101000a900460ff1681565b60006002543402905080600160009054906101000a900473ffffffffffffffffffffffffffffffffffffffff1673ffffffffffffffffffffffffffffffffffffffff166370a08231306040518263ffffffff1660e01b8152600401808273ffffffffffffffffffffffffffffffffffffffff1673ffffffffffffffffffffffffffffffffffffffff16815260200191505060206040518083038186803b15801561068957600080fd5b505afa15801561069d573d6000803e3d6000fd5b505050506040513d60208110156106b357600080fd5b8101908080519060200190929190505050101580156106df5750600360009054906101000a900460ff16155b6106e857600080fd5b6001600360006101000a81548160ff021916908315150217905550600160009054906101000a900473ffffffffffffffffffffffffffffffffffffffff1673ffffffffffffffffffffffffffffffffffffffff1663a9059cbb33836040518363ffffffff1660e01b8152600401808373ffffffffffffffffffffffffffffffffffffffff1673ffffffffffffffffffffffffffffffffffffffff16815260200182815260200192505050602060405180830381600087803b1580156107ac57600080fd5b505af11580156107c0573d6000803e3d6000fd5b505050506040513d60208110156107d657600080fd5b8101908080519060200190929190505050507f05d4ce4d79d5fd631754903dcbe4648470b59f38e9e3d69ca0cb0a672674b97e33600160009054906101000a900473ffffffffffffffffffffffffffffffffffffffff1683600254604051808573ffffffffffffffffffffffffffffffffffffffff1673ffffffffffffffffffffffffffffffffffffffff1681526020018473ffffffffffffffffffffffffffffffffffffffff1673ffffffffffffffffffffffffffffffffffffffff16815260200183815260200182815260200194505050505060405180910390a16000600360006101000a81548160ff02191690831515021790555050565b600160009054906101000a900473ffffffffffffffffffffffffffffffffffffffff168156fea265627a7a723158200021194e6012e0d505f5380c1ee30d313efe816603989e9ef502cddc61f4ff2464736f6c63430005100032",
  "source": "pragma solidity ^0.5.0;\r\n\r\n//import Token contract\r\nimport \"./Token.sol\";\r\n\r\ncontract Swap {\r\n\tstring public name = \"Decentralized Exchange\";\r\n\tToken public token;\r\n\t//define redemption rate\r\n\tuint public rate = 100;\r\n\t//prevent reentrancy\r\n\tbool public flagg;\r\n\r\n\tevent tokensPurchased(\r\n\t\taddress account,\r\n\t\taddress token,\r\n\t\tuint amount,\r\n\t\tuint rate\r\n\t);\r\n\r\n\t\tevent tokensSold(\r\n\t\taddress account,\r\n\t\taddress token,\r\n\t\tuint amount,\r\n\t\tuint rate\r\n\t);\r\n\r\n\tconstructor(Token _token) public {\r\n\t\ttoken = _token;\r\n\t}\r\n\r\n\tfunction buyTokens() public payable {\r\n\t\tuint tokenAmount = msg.value * rate;\r\n\r\n\t\t//prevent overdrawing\r\n\t\trequire((token.balanceOf(address(this)) >= tokenAmount) && !flagg);\r\n\r\n\t\t//transfer tokens\r\n\t\tflagg = true;\r\n\t\ttoken.transfer(address(msg.sender), tokenAmount);\r\n\r\n\t\t//emit event\r\n\t\temit tokensPurchased(msg.sender, address(token), tokenAmount, rate);\r\n\t\tflagg = false;\r\n\t}\r\n\r\n\tfunction sellTokens(uint _amount) public {\r\n\t\t//cannot oversell\r\n\t\trequire(token.balanceOf(msg.sender) >= _amount);\r\n\r\n\t\t//calc the eth\r\n\t\tuint ethAmount = _amount / rate;\r\n\r\n\t\trequire(address(this).balance >= ethAmount);\r\n\r\n\t\t//give user eth\r\n\t\t//use ERC20 transfer function\r\n\t\ttoken.transferFrom(msg.sender, address(this), _amount);\r\n\t\tmsg.sender.transfer(ethAmount);\r\n\r\n\t\temit tokensSold(msg.sender, address(token), _amount, rate);\r\n\t}\r\n\t\r\n}",
  "sourcePath": "C:\\Users\\Nick\\Documents\\GitHub\\swapDapp\\src\\contracts\\Swap.sol",
  "compiler": {
    "name": "solc",
    "version": "0.5.16+commit.9c3226ce.Emscripten.clang"
  },
  "schemaVersion": "3.4.7",
  "updatedAt": "2022-04-10T15:30:36.340Z",
  "networkType": "ethereum",
  "devdoc": {
    "methods": {}
  },
  "userdoc": {
    "methods": {}
  }
}